{
  "contractName": "Voting",
  "abi": [
    {
      "anonymous": false,
      "inputs": [
        {
          "indexed": true,
          "internalType": "address",
          "name": "previousOwner",
          "type": "address"
        },
        {
          "indexed": true,
          "internalType": "address",
          "name": "newOwner",
          "type": "address"
        }
      ],
      "name": "OwnershipTransferred",
      "type": "event"
    },
    {
      "anonymous": false,
      "inputs": [
        {
          "indexed": false,
          "internalType": "uint256",
          "name": "proposalId",
          "type": "uint256"
        }
      ],
      "name": "ProposalRegistered",
      "type": "event"
    },
    {
      "anonymous": false,
      "inputs": [
        {
          "indexed": false,
          "internalType": "address",
          "name": "voter",
          "type": "address"
        },
        {
          "indexed": false,
          "internalType": "uint256",
          "name": "proposalId",
          "type": "uint256"
        }
      ],
      "name": "Voted",
      "type": "event"
    },
    {
      "anonymous": false,
      "inputs": [
        {
          "indexed": false,
          "internalType": "address",
          "name": "voterAddress",
          "type": "address"
        }
      ],
      "name": "VoterRegistered",
      "type": "event"
    },
    {
      "anonymous": false,
      "inputs": [
        {
          "indexed": false,
          "internalType": "enum Voting.WorkflowStatus",
          "name": "previousStatus",
          "type": "uint8"
        },
        {
          "indexed": false,
          "internalType": "enum Voting.WorkflowStatus",
          "name": "newStatus",
          "type": "uint8"
        }
      ],
      "name": "WorkflowStatusChange",
      "type": "event"
    },
    {
      "inputs": [],
      "name": "owner",
      "outputs": [
        {
          "internalType": "address",
          "name": "",
          "type": "address"
        }
      ],
      "stateMutability": "view",
      "type": "function",
      "constant": true
    },
    {
      "inputs": [
        {
          "internalType": "uint256",
          "name": "",
          "type": "uint256"
        }
      ],
      "name": "proposalsArray",
      "outputs": [
        {
          "internalType": "string",
          "name": "description",
          "type": "string"
        },
        {
          "internalType": "uint256",
          "name": "voteCount",
          "type": "uint256"
        }
      ],
      "stateMutability": "view",
      "type": "function",
      "constant": true
    },
    {
      "inputs": [],
      "name": "renounceOwnership",
      "outputs": [],
      "stateMutability": "nonpayable",
      "type": "function"
    },
    {
      "inputs": [
        {
          "internalType": "address",
          "name": "newOwner",
          "type": "address"
        }
      ],
      "name": "transferOwnership",
      "outputs": [],
      "stateMutability": "nonpayable",
      "type": "function"
    },
    {
      "inputs": [],
      "name": "winningProposalID",
      "outputs": [
        {
          "internalType": "uint256",
          "name": "",
          "type": "uint256"
        }
      ],
      "stateMutability": "view",
      "type": "function",
      "constant": true
    },
    {
      "inputs": [],
      "name": "workflowStatus",
      "outputs": [
        {
          "internalType": "enum Voting.WorkflowStatus",
          "name": "",
          "type": "uint8"
        }
      ],
      "stateMutability": "view",
      "type": "function",
      "constant": true
    },
    {
      "inputs": [
        {
          "internalType": "address",
          "name": "_addr",
          "type": "address"
        }
      ],
      "name": "getVoter",
      "outputs": [
        {
          "components": [
            {
              "internalType": "bool",
              "name": "isRegistered",
              "type": "bool"
            },
            {
              "internalType": "bool",
              "name": "hasVoted",
              "type": "bool"
            },
            {
              "internalType": "uint256",
              "name": "votedProposalId",
              "type": "uint256"
            }
          ],
          "internalType": "struct Voting.Voter",
          "name": "",
          "type": "tuple"
        }
      ],
      "stateMutability": "view",
      "type": "function",
      "constant": true
    },
    {
      "inputs": [
        {
          "internalType": "uint256",
          "name": "_id",
          "type": "uint256"
        }
      ],
      "name": "getOneProposal",
      "outputs": [
        {
          "components": [
            {
              "internalType": "string",
              "name": "description",
              "type": "string"
            },
            {
              "internalType": "uint256",
              "name": "voteCount",
              "type": "uint256"
            }
          ],
          "internalType": "struct Voting.Proposal",
          "name": "",
          "type": "tuple"
        }
      ],
      "stateMutability": "view",
      "type": "function",
      "constant": true
    },
    {
      "inputs": [
        {
          "internalType": "address",
          "name": "_addr",
          "type": "address"
        }
      ],
      "name": "addVoter",
      "outputs": [],
      "stateMutability": "nonpayable",
      "type": "function"
    },
    {
      "inputs": [
        {
          "internalType": "string",
          "name": "_desc",
          "type": "string"
        }
      ],
      "name": "addProposal",
      "outputs": [],
      "stateMutability": "nonpayable",
      "type": "function"
    },
    {
      "inputs": [
        {
          "internalType": "uint256",
          "name": "_id",
          "type": "uint256"
        }
      ],
      "name": "setVote",
      "outputs": [],
      "stateMutability": "nonpayable",
      "type": "function"
    },
    {
      "inputs": [],
      "name": "startProposalsRegistering",
      "outputs": [],
      "stateMutability": "nonpayable",
      "type": "function"
    },
    {
      "inputs": [],
      "name": "endProposalsRegistering",
      "outputs": [],
      "stateMutability": "nonpayable",
      "type": "function"
    },
    {
      "inputs": [],
      "name": "startVotingSession",
      "outputs": [],
      "stateMutability": "nonpayable",
      "type": "function"
    },
    {
      "inputs": [],
      "name": "endVotingSession",
      "outputs": [],
      "stateMutability": "nonpayable",
      "type": "function"
    },
    {
      "inputs": [],
      "name": "tallyVotes",
      "outputs": [],
      "stateMutability": "nonpayable",
      "type": "function"
    }
  ],
  "bytecode": "0x60806040523480156200001157600080fd5b5062000032620000266200003860201b60201c565b6200004060201b60201c565b62000104565b600033905090565b60008060009054906101000a900473ffffffffffffffffffffffffffffffffffffffff169050816000806101000a81548173ffffffffffffffffffffffffffffffffffffffff021916908373ffffffffffffffffffffffffffffffffffffffff1602179055508173ffffffffffffffffffffffffffffffffffffffff168173ffffffffffffffffffffffffffffffffffffffff167f8be0079c531659141344cd1fd0a4f28419497f9722a3daafe3b4186f6b6457e060405160405180910390a35050565b61258b80620001146000396000f3fe608060405234801561001057600080fd5b50600436106101005760003560e01c8063bdc0143111610097578063ee74c67811610066578063ee74c67814610229578063f2fde38b14610233578063f4ab9adf1461024f578063f86c67791461026b57610100565b8063bdc01431146101c7578063c7038a4e146101e5578063c88af42f146101ef578063d4f50f98146101f957610100565b80638da5cb5b116100d35780638da5cb5b14610151578063a1edffa21461016f578063a2788cce1461018d578063a7bfab16146101bd57610100565b8063230796ae146101055780632fdae3c514610121578063378a21781461013d578063715018a614610147575b600080fd5b61011f600480360381019061011a919061151e565b61029c565b005b61013b600480360381019061013691906115b0565b6105f3565b005b610145610876565b005b61014f61095c565b005b610159610970565b604051610166919061163e565b60405180910390f35b610177610999565b60405161018491906116d0565b60405180910390f35b6101a760048036038101906101a2919061151e565b6109ac565b6040516101b491906117c7565b60405180910390f35b6101c5610b13565b005b6101cf610bf9565b6040516101dc91906117f8565b60405180910390f35b6101ed610bff565b005b6101f7610d7a565b005b610213600480360381019061020e919061183f565b610e5f565b60405161022091906118c9565b60405180910390f35b610231610f87565b005b61024d6004803603810190610248919061183f565b61106d565b005b6102696004803603810190610264919061183f565b6110f0565b005b6102856004803603810190610280919061151e565b611299565b60405161029392919061192e565b60405180910390f35b600460003373ffffffffffffffffffffffffffffffffffffffff1673ffffffffffffffffffffffffffffffffffffffff16815260200190815260200160002060000160009054906101000a900460ff1661032b576040517f08c379a0000000000000000000000000000000000000000000000000000000008152600401610322906119aa565b60405180910390fd5b6003600581111561033f5761033e611659565b5b600260009054906101000a900460ff16600581111561036157610360611659565b5b146103a1576040517f08c379a000000000000000000000000000000000000000000000000000000000815260040161039890611a3c565b60405180910390fd5b60011515600460003373ffffffffffffffffffffffffffffffffffffffff1673ffffffffffffffffffffffffffffffffffffffff16815260200190815260200160002060000160019054906101000a900460ff16151503610437576040517f08c379a000000000000000000000000000000000000000000000000000000000815260040161042e90611aa8565b60405180910390fd5b600380549050811061047e576040517f08c379a000000000000000000000000000000000000000000000000000000000815260040161047590611b14565b60405180910390fd5b80600460003373ffffffffffffffffffffffffffffffffffffffff1673ffffffffffffffffffffffffffffffffffffffff168152602001908152602001600020600101819055506001600460003373ffffffffffffffffffffffffffffffffffffffff1673ffffffffffffffffffffffffffffffffffffffff16815260200190815260200160002060000160016101000a81548160ff0219169083151502179055506003818154811061053457610533611b34565b5b9060005260206000209060020201600101600081548092919061055690611b92565b919050555060036001548154811061057157610570611b34565b5b9060005260206000209060020201600101546003828154811061059757610596611b34565b5b90600052602060002090600202016001015411156105b757806001819055505b7f4d99b957a2bc29a30ebd96a7be8e68fe50a3c701db28a91436490b7d53870ca433826040516105e8929190611bda565b60405180910390a150565b600460003373ffffffffffffffffffffffffffffffffffffffff1673ffffffffffffffffffffffffffffffffffffffff16815260200190815260200160002060000160009054906101000a900460ff16610682576040517f08c379a0000000000000000000000000000000000000000000000000000000008152600401610679906119aa565b60405180910390fd5b6001600581111561069657610695611659565b5b600260009054906101000a900460ff1660058111156106b8576106b7611659565b5b146106f8576040517f08c379a00000000000000000000000000000000000000000000000000000000081526004016106ef90611c4f565b60405180910390fd5b60405160200161070790611c95565b604051602081830303815290604052805190602001208282604051602001610730929190611cf1565b6040516020818303038152906040528051906020012003610786576040517f08c379a000000000000000000000000000000000000000000000000000000000815260040161077d90611d87565b60405180910390fd5b61078e61149f565b82828080601f016020809104026020016040519081016040528093929190818152602001838380828437600081840152601f19601f8201169050808301925050505050505081600001819052506003819080600181540180825580915050600190039060005260206000209060020201600090919091909150600082015181600001908161081c9190611fe2565b506020820151816001015550507f92e393e9b54e2f801d3ea4beb0c5e71a21cc34a5d34b77d0fb8a3aa1650dc18f600160038054905061085c91906120b4565b60405161086991906117f8565b60405180910390a1505050565b61087e611355565b6004600581111561089257610891611659565b5b600260009054906101000a900460ff1660058111156108b4576108b3611659565b5b146108f4576040517f08c379a00000000000000000000000000000000000000000000000000000000081526004016108eb9061215a565b60405180910390fd5b6005600260006101000a81548160ff0219169083600581111561091a57610919611659565b5b02179055507f0a97a4ee45751e2abf3e4fc8946939630b11b371ea8ae39ccdc3056e98f5cc3f6004600560405161095292919061217a565b60405180910390a1565b610964611355565b61096e60006113d3565b565b60008060009054906101000a900473ffffffffffffffffffffffffffffffffffffffff16905090565b600260009054906101000a900460ff1681565b6109b461149f565b600460003373ffffffffffffffffffffffffffffffffffffffff1673ffffffffffffffffffffffffffffffffffffffff16815260200190815260200160002060000160009054906101000a900460ff16610a43576040517f08c379a0000000000000000000000000000000000000000000000000000000008152600401610a3a906119aa565b60405180910390fd5b60038281548110610a5757610a56611b34565b5b9060005260206000209060020201604051806040016040529081600082018054610a8090611e05565b80601f0160208091040260200160405190810160405280929190818152602001828054610aac90611e05565b8015610af95780601f10610ace57610100808354040283529160200191610af9565b820191906000526020600020905b815481529060010190602001808311610adc57829003601f168201915b505050505081526020016001820154815250509050919050565b610b1b611355565b60036005811115610b2f57610b2e611659565b5b600260009054906101000a900460ff166005811115610b5157610b50611659565b5b14610b91576040517f08c379a0000000000000000000000000000000000000000000000000000000008152600401610b8890611a3c565b60405180910390fd5b6004600260006101000a81548160ff02191690836005811115610bb757610bb6611659565b5b02179055507f0a97a4ee45751e2abf3e4fc8946939630b11b371ea8ae39ccdc3056e98f5cc3f60036004604051610bef92919061217a565b60405180910390a1565b60015481565b610c07611355565b60006005811115610c1b57610c1a611659565b5b600260009054906101000a900460ff166005811115610c3d57610c3c611659565b5b14610c7d576040517f08c379a0000000000000000000000000000000000000000000000000000000008152600401610c7490612215565b60405180910390fd5b6001600260006101000a81548160ff02191690836005811115610ca357610ca2611659565b5b0217905550610cb061149f565b6040518060400160405280600781526020017f47454e4553495300000000000000000000000000000000000000000000000000815250816000018190525060038190806001815401808255809150506001900390600052602060002090600202016000909190919091506000820151816000019081610d2f9190611fe2565b506020820151816001015550507f0a97a4ee45751e2abf3e4fc8946939630b11b371ea8ae39ccdc3056e98f5cc3f60006001604051610d6f92919061217a565b60405180910390a150565b610d82611355565b60016005811115610d9657610d95611659565b5b600260009054906101000a900460ff166005811115610db857610db7611659565b5b14610df8576040517f08c379a0000000000000000000000000000000000000000000000000000000008152600401610def906122a7565b60405180910390fd5b60028060006101000a81548160ff02191690836005811115610e1d57610e1c611659565b5b02179055507f0a97a4ee45751e2abf3e4fc8946939630b11b371ea8ae39ccdc3056e98f5cc3f60016002604051610e5592919061217a565b60405180910390a1565b610e676114b9565b600460003373ffffffffffffffffffffffffffffffffffffffff1673ffffffffffffffffffffffffffffffffffffffff16815260200190815260200160002060000160009054906101000a900460ff16610ef6576040517f08c379a0000000000000000000000000000000000000000000000000000000008152600401610eed906119aa565b60405180910390fd5b600460008373ffffffffffffffffffffffffffffffffffffffff1673ffffffffffffffffffffffffffffffffffffffff1681526020019081526020016000206040518060600160405290816000820160009054906101000a900460ff161515151581526020016000820160019054906101000a900460ff161515151581526020016001820154815250509050919050565b610f8f611355565b60026005811115610fa357610fa2611659565b5b600260009054906101000a900460ff166005811115610fc557610fc4611659565b5b14611005576040517f08c379a0000000000000000000000000000000000000000000000000000000008152600401610ffc90612339565b60405180910390fd5b6003600260006101000a81548160ff0219169083600581111561102b5761102a611659565b5b02179055507f0a97a4ee45751e2abf3e4fc8946939630b11b371ea8ae39ccdc3056e98f5cc3f6002600360405161106392919061217a565b60405180910390a1565b611075611355565b600073ffffffffffffffffffffffffffffffffffffffff168173ffffffffffffffffffffffffffffffffffffffff16036110e4576040517f08c379a00000000000000000000000000000000000000000000000000000000081526004016110db906123cb565b60405180910390fd5b6110ed816113d3565b50565b6110f8611355565b6000600581111561110c5761110b611659565b5b600260009054906101000a900460ff16600581111561112e5761112d611659565b5b1461116e576040517f08c379a00000000000000000000000000000000000000000000000000000000081526004016111659061245d565b60405180910390fd5b60011515600460008373ffffffffffffffffffffffffffffffffffffffff1673ffffffffffffffffffffffffffffffffffffffff16815260200190815260200160002060000160009054906101000a900460ff16151503611204576040517f08c379a00000000000000000000000000000000000000000000000000000000081526004016111fb906124c9565b60405180910390fd5b6001600460008373ffffffffffffffffffffffffffffffffffffffff1673ffffffffffffffffffffffffffffffffffffffff16815260200190815260200160002060000160006101000a81548160ff0219169083151502179055507fb6be2187d059cc2a55fe29e0e503b566e1e0f8c8780096e185429350acffd3dd8160405161128e919061163e565b60405180910390a150565b600381815481106112a957600080fd5b90600052602060002090600202016000915090508060000180546112cc90611e05565b80601f01602080910402602001604051908101604052809291908181526020018280546112f890611e05565b80156113455780601f1061131a57610100808354040283529160200191611345565b820191906000526020600020905b81548152906001019060200180831161132857829003601f168201915b5050505050908060010154905082565b61135d611497565b73ffffffffffffffffffffffffffffffffffffffff1661137b610970565b73ffffffffffffffffffffffffffffffffffffffff16146113d1576040517f08c379a00000000000000000000000000000000000000000000000000000000081526004016113c890612535565b60405180910390fd5b565b60008060009054906101000a900473ffffffffffffffffffffffffffffffffffffffff169050816000806101000a81548173ffffffffffffffffffffffffffffffffffffffff021916908373ffffffffffffffffffffffffffffffffffffffff1602179055508173ffffffffffffffffffffffffffffffffffffffff168173ffffffffffffffffffffffffffffffffffffffff167f8be0079c531659141344cd1fd0a4f28419497f9722a3daafe3b4186f6b6457e060405160405180910390a35050565b600033905090565b604051806040016040528060608152602001600081525090565b6040518060600160405280600015158152602001600015158152602001600081525090565b600080fd5b600080fd5b6000819050919050565b6114fb816114e8565b811461150657600080fd5b50565b600081359050611518816114f2565b92915050565b600060208284031215611534576115336114de565b5b600061154284828501611509565b91505092915050565b600080fd5b600080fd5b600080fd5b60008083601f8401126115705761156f61154b565b5b8235905067ffffffffffffffff81111561158d5761158c611550565b5b6020830191508360018202830111156115a9576115a8611555565b5b9250929050565b600080602083850312156115c7576115c66114de565b5b600083013567ffffffffffffffff8111156115e5576115e46114e3565b5b6115f18582860161155a565b92509250509250929050565b600073ffffffffffffffffffffffffffffffffffffffff82169050919050565b6000611628826115fd565b9050919050565b6116388161161d565b82525050565b6000602082019050611653600083018461162f565b92915050565b7f4e487b7100000000000000000000000000000000000000000000000000000000600052602160045260246000fd5b6006811061169957611698611659565b5b50565b60008190506116aa82611688565b919050565b60006116ba8261169c565b9050919050565b6116ca816116af565b82525050565b60006020820190506116e560008301846116c1565b92915050565b600081519050919050565b600082825260208201905092915050565b60005b8381101561172557808201518184015260208101905061170a565b60008484015250505050565b6000601f19601f8301169050919050565b600061174d826116eb565b61175781856116f6565b9350611767818560208601611707565b61177081611731565b840191505092915050565b611784816114e8565b82525050565b600060408301600083015184820360008601526117a78282611742565b91505060208301516117bc602086018261177b565b508091505092915050565b600060208201905081810360008301526117e1818461178a565b905092915050565b6117f2816114e8565b82525050565b600060208201905061180d60008301846117e9565b92915050565b61181c8161161d565b811461182757600080fd5b50565b60008135905061183981611813565b92915050565b600060208284031215611855576118546114de565b5b60006118638482850161182a565b91505092915050565b60008115159050919050565b6118818161186c565b82525050565b60608201600082015161189d6000850182611878565b5060208201516118b06020850182611878565b5060408201516118c3604085018261177b565b50505050565b60006060820190506118de6000830184611887565b92915050565b600082825260208201905092915050565b6000611900826116eb565b61190a81856118e4565b935061191a818560208601611707565b61192381611731565b840191505092915050565b6000604082019050818103600083015261194881856118f5565b905061195760208301846117e9565b9392505050565b7f596f75277265206e6f74206120766f7465720000000000000000000000000000600082015250565b60006119946012836118e4565b915061199f8261195e565b602082019050919050565b600060208201905081810360008301526119c381611987565b9050919050565b7f566f74696e672073657373696f6e20686176656e74207374617274656420796560008201527f7400000000000000000000000000000000000000000000000000000000000000602082015250565b6000611a266021836118e4565b9150611a31826119ca565b604082019050919050565b60006020820190508181036000830152611a5581611a19565b9050919050565b7f596f75206861766520616c726561647920766f74656400000000000000000000600082015250565b6000611a926016836118e4565b9150611a9d82611a5c565b602082019050919050565b60006020820190508181036000830152611ac181611a85565b9050919050565b7f50726f706f73616c206e6f7420666f756e640000000000000000000000000000600082015250565b6000611afe6012836118e4565b9150611b0982611ac8565b602082019050919050565b60006020820190508181036000830152611b2d81611af1565b9050919050565b7f4e487b7100000000000000000000000000000000000000000000000000000000600052603260045260246000fd5b7f4e487b7100000000000000000000000000000000000000000000000000000000600052601160045260246000fd5b6000611b9d826114e8565b91507fffffffffffffffffffffffffffffffffffffffffffffffffffffffffffffffff8203611bcf57611bce611b63565b5b600182019050919050565b6000604082019050611bef600083018561162f565b611bfc60208301846117e9565b9392505050565b7f50726f706f73616c7320617265206e6f7420616c6c6f77656420796574000000600082015250565b6000611c39601d836118e4565b9150611c4482611c03565b602082019050919050565b60006020820190508181036000830152611c6881611c2c565b9050919050565b50565b6000611c7f6000836118e4565b9150611c8a82611c6f565b600082019050919050565b60006020820190508181036000830152611cae81611c72565b9050919050565b82818337600083830152505050565b6000611cd083856118e4565b9350611cdd838584611cb5565b611ce683611731565b840190509392505050565b60006020820190508181036000830152611d0c818486611cc4565b90509392505050565b7f566f7573206e6520706f7576657a20706173206e65207269656e2070726f706f60008201527f7365720000000000000000000000000000000000000000000000000000000000602082015250565b6000611d716023836118e4565b9150611d7c82611d15565b604082019050919050565b60006020820190508181036000830152611da081611d64565b9050919050565b7f4e487b7100000000000000000000000000000000000000000000000000000000600052604160045260246000fd5b7f4e487b7100000000000000000000000000000000000000000000000000000000600052602260045260246000fd5b60006002820490506001821680611e1d57607f821691505b602082108103611e3057611e2f611dd6565b5b50919050565b60008190508160005260206000209050919050565b60006020601f8301049050919050565b600082821b905092915050565b600060088302611e987fffffffffffffffffffffffffffffffffffffffffffffffffffffffffffffffff82611e5b565b611ea28683611e5b565b95508019841693508086168417925050509392505050565b6000819050919050565b6000611edf611eda611ed5846114e8565b611eba565b6114e8565b9050919050565b6000819050919050565b611ef983611ec4565b611f0d611f0582611ee6565b848454611e68565b825550505050565b600090565b611f22611f15565b611f2d818484611ef0565b505050565b5b81811015611f5157611f46600082611f1a565b600181019050611f33565b5050565b601f821115611f9657611f6781611e36565b611f7084611e4b565b81016020851015611f7f578190505b611f93611f8b85611e4b565b830182611f32565b50505b505050565b600082821c905092915050565b6000611fb960001984600802611f9b565b1980831691505092915050565b6000611fd28383611fa8565b9150826002028217905092915050565b611feb826116eb565b67ffffffffffffffff81111561200457612003611da7565b5b61200e8254611e05565b612019828285611f55565b600060209050601f83116001811461204c576000841561203a578287015190505b6120448582611fc6565b8655506120ac565b601f19841661205a86611e36565b60005b828110156120825784890151825560018201915060208501945060208101905061205d565b8683101561209f578489015161209b601f891682611fa8565b8355505b6001600288020188555050505b505050505050565b60006120bf826114e8565b91506120ca836114e8565b92508282039050818111156120e2576120e1611b63565b5b92915050565b7f43757272656e7420737461747573206973206e6f7420766f74696e672073657360008201527f73696f6e20656e64656400000000000000000000000000000000000000000000602082015250565b6000612144602a836118e4565b915061214f826120e8565b604082019050919050565b6000602082019050818103600083015261217381612137565b9050919050565b600060408201905061218f60008301856116c1565b61219c60208301846116c1565b9392505050565b7f5265676973746572696e672070726f706f73616c732063616e7420626520737460008201527f6172746564206e6f770000000000000000000000000000000000000000000000602082015250565b60006121ff6029836118e4565b915061220a826121a3565b604082019050919050565b6000602082019050818103600083015261222e816121f2565b9050919050565b7f5265676973746572696e672070726f706f73616c7320686176656e742073746160008201527f7274656420796574000000000000000000000000000000000000000000000000602082015250565b60006122916028836118e4565b915061229c82612235565b604082019050919050565b600060208201905081810360008301526122c081612284565b9050919050565b7f5265676973746572696e672070726f706f73616c73207068617365206973206e60008201527f6f742066696e6973686564000000000000000000000000000000000000000000602082015250565b6000612323602b836118e4565b915061232e826122c7565b604082019050919050565b6000602082019050818103600083015261235281612316565b9050919050565b7f4f776e61626c653a206e6577206f776e657220697320746865207a65726f206160008201527f6464726573730000000000000000000000000000000000000000000000000000602082015250565b60006123b56026836118e4565b91506123c082612359565b604082019050919050565b600060208201905081810360008301526123e4816123a8565b9050919050565b7f566f7465727320726567697374726174696f6e206973206e6f74206f70656e2060008201527f7965740000000000000000000000000000000000000000000000000000000000602082015250565b60006124476023836118e4565b9150612452826123eb565b604082019050919050565b600060208201905081810360008301526124768161243a565b9050919050565b7f416c726561647920726567697374657265640000000000000000000000000000600082015250565b60006124b36012836118e4565b91506124be8261247d565b602082019050919050565b600060208201905081810360008301526124e2816124a6565b9050919050565b7f4f776e61626c653a2063616c6c6572206973206e6f7420746865206f776e6572600082015250565b600061251f6020836118e4565b915061252a826124e9565b602082019050919050565b6000602082019050818103600083015261254e81612512565b905091905056fea26469706673582212209ddfee024d46cfee97b3a00c15291411642face0972584650f04c0f15110d4f864736f6c63430008110033",
  "immutableReferences": {},
  "source": "// SPDX-License-Identifier: GPL-3.0\npragma solidity 0.8.17;\n\nimport \"../node_modules/@openzeppelin/contracts/access/Ownable.sol\";\n\n/// @title Proposals voting system\n/// @author smart contract programmer\n/// @notice You can use this contract for setting up a proposals voting system\ncontract Voting is Ownable {\n    /// Index of the winning proposal\n    uint256 public winningProposalID;\n\n    /// Voter\n    struct Voter {\n        bool isRegistered;\n        bool hasVoted;\n        uint256 votedProposalId;\n    }\n\n    /// An object Proposal with a description and a number of votes\n    struct Proposal {\n        string description;\n        uint256 voteCount;\n    }\n\n    /// Status of the workflow\n    enum WorkflowStatus {\n        RegisteringVoters,\n        ProposalsRegistrationStarted,\n        ProposalsRegistrationEnded,\n        VotingSessionStarted,\n        VotingSessionEnded,\n        VotesTallied\n    }\n\n    /// Current status of the workflow\n    WorkflowStatus public workflowStatus;\n\n    /// List of proposals\n    Proposal[] public proposalsArray;\n\n    /// Voters in the whitelist\n    mapping(address => Voter) voters;\n\n    /// @notice This event is emitted when a vote is registered.\n    /// @param voterAddress Voter's address\n    event VoterRegistered(address voterAddress);\n\n    /// @notice This event is emitted when a voter is registered.\n    /// @param previousStatus Status before update\n    /// @param newStatus Status after update\n    event WorkflowStatusChange(\n        WorkflowStatus previousStatus,\n        WorkflowStatus newStatus\n    );\n\n    /// @notice This event is emitted when a proposal is registered.\n    /// @param proposalId Index of the proposal in the table\n    event ProposalRegistered(uint256 proposalId);\n\n    /// @notice This event is emitted when a voter has voted for a proposal\n    /// @param voter Voter's address\n    /// @param proposalId Index of the proposal in the table\n    event Voted(address voter, uint256 proposalId);\n\n    /// @notice This modifier checks that the voter is registered to perform the action\n    /// @dev sg.sender is the caller\n    modifier onlyVoters() {\n        require(voters[msg.sender].isRegistered, \"You're not a voter\");\n        _;\n    }\n\n    // ::::::::::::: GETTERS ::::::::::::: //\n\n    /// @notice Return a voter by a specific address\n    /// @param _addr caller's address\n    /// @return Voter object\n    function getVoter(address _addr)\n        external\n        view\n        onlyVoters\n        returns (Voter memory)\n    {\n        return voters[_addr];\n    }\n\n    /// @notice Return a proposal by id\n    /// @param _id Index of the proposal in the table\n    /// @return Proposal made by a voter\n    function getOneProposal(uint256 _id)\n        external\n        view\n        onlyVoters\n        returns (Proposal memory)\n    {\n        return proposalsArray[_id];\n    }\n\n    // ::::::::::::: REGISTRATION ::::::::::::: //\n\n    /// @notice Add a voter in the whitelist\n    /// @param _addr voter's address to add in the whitelist\n    /// @dev Function can only be called by the deployer of the contract\n    function addVoter(address _addr) external onlyOwner {\n        require(\n            workflowStatus == WorkflowStatus.RegisteringVoters,\n            \"Voters registration is not open yet\"\n        );\n        /// Check the presence of the voter is the whitelist\n        require(voters[_addr].isRegistered != true, \"Already registered\");\n\n        voters[_addr].isRegistered = true;\n        emit VoterRegistered(_addr);\n    }\n\n    // ::::::::::::: PROPOSAL ::::::::::::: //\n\n    /// @notice Add a proposal\n    /// @param _desc Description of the proposal\n    /// @dev Function can only be called by a registered voter\n    function addProposal(string calldata _desc) external onlyVoters {\n        require(\n            workflowStatus == WorkflowStatus.ProposalsRegistrationStarted,\n            \"Proposals are not allowed yet\"\n        );\n        /// Description must not be empty\n        require(\n            keccak256(abi.encode(_desc)) != keccak256(abi.encode(\"\")),\n            \"Vous ne pouvez pas ne rien proposer\"\n        );\n\n        Proposal memory proposal;\n        proposal.description = _desc;\n        proposalsArray.push(proposal);\n        emit ProposalRegistered(proposalsArray.length - 1);\n    }\n\n    // ::::::::::::: VOTE ::::::::::::: //\n\n    /// @notice Vote for a proposal\n    /// @param _id Index of the proposal in the table\n    /// @dev Function can only be called by a registered voter\n    function setVote(uint256 _id) external onlyVoters {\n        require(\n            workflowStatus == WorkflowStatus.VotingSessionStarted,\n            \"Voting session havent started yet\"\n        );\n\n        /// The voter must not have voted\n        require(voters[msg.sender].hasVoted != true, \"You have already voted\");\n        /// Check the existence of the proposal in the table\n        require(_id < proposalsArray.length, \"Proposal not found\");\n\n        voters[msg.sender].votedProposalId = _id;\n        voters[msg.sender].hasVoted = true;\n        proposalsArray[_id].voteCount++;\n\n        /// @Dev patch To evict a DoS Gas Limit attack in tallyVotes - Identify the winning proposal\n        if (\n            proposalsArray[_id].voteCount >\n            proposalsArray[winningProposalID].voteCount\n        ) {\n            winningProposalID = _id;\n        }\n\n        emit Voted(msg.sender, _id);\n    }\n\n    // ::::::::::::: STATE ::::::::::::: //\n\n    /// @notice The contract owner starts the proposals registering session\n    /// @dev Function can only be called by the deployer of the contract\n    function startProposalsRegistering() external onlyOwner {\n        require(\n            workflowStatus == WorkflowStatus.RegisteringVoters,\n            \"Registering proposals cant be started now\"\n        );\n        workflowStatus = WorkflowStatus.ProposalsRegistrationStarted;\n\n        Proposal memory proposal;\n        proposal.description = \"GENESIS\";\n        proposalsArray.push(proposal);\n\n        emit WorkflowStatusChange(\n            WorkflowStatus.RegisteringVoters,\n            WorkflowStatus.ProposalsRegistrationStarted\n        );\n    }\n\n    /// @notice The contract owner stops the proposals registering session\n    /// @dev Function can only be called by the deployer of the contract\n    function endProposalsRegistering() external onlyOwner {\n        require(\n            workflowStatus == WorkflowStatus.ProposalsRegistrationStarted,\n            \"Registering proposals havent started yet\"\n        );\n        workflowStatus = WorkflowStatus.ProposalsRegistrationEnded;\n        emit WorkflowStatusChange(\n            WorkflowStatus.ProposalsRegistrationStarted,\n            WorkflowStatus.ProposalsRegistrationEnded\n        );\n    }\n\n    /// @notice The contract owner starts the voting session\n    /// @dev Function can only be called by the deployer of the contract\n    function startVotingSession() external onlyOwner {\n        require(\n            workflowStatus == WorkflowStatus.ProposalsRegistrationEnded,\n            \"Registering proposals phase is not finished\"\n        );\n        workflowStatus = WorkflowStatus.VotingSessionStarted;\n        emit WorkflowStatusChange(\n            WorkflowStatus.ProposalsRegistrationEnded,\n            WorkflowStatus.VotingSessionStarted\n        );\n    }\n\n    /// @notice The contract owner stops  the voting session\n    /// @dev Function can only be called by the deployer of the contract\n    function endVotingSession() external onlyOwner {\n        require(\n            workflowStatus == WorkflowStatus.VotingSessionStarted,\n            \"Voting session havent started yet\"\n        );\n        workflowStatus = WorkflowStatus.VotingSessionEnded;\n        emit WorkflowStatusChange(\n            WorkflowStatus.VotingSessionStarted,\n            WorkflowStatus.VotingSessionEnded\n        );\n    }\n\n    /// @notice Count the votes - Finalise the votes\n    function tallyVotes() external onlyOwner {\n        require(\n            workflowStatus == WorkflowStatus.VotingSessionEnded,\n            \"Current status is not voting session ended\"\n        );\n        /// @Dev The commented code is done for preventing a DOS gaz limit attack.\n        /// The count of the votes is done in setVote function. Function can only be called by the deployer of the contract\n\n        /*\n        uint256 _winningProposalId;\n        for (uint256 p = 0; p < proposalsArray.length; p++) {\n            if (\n                proposalsArray[p].voteCount >\n                proposalsArray[_winningProposalId].voteCount\n            ) {\n                _winningProposalId = p;\n            }\n        }\n        winningProposalID = _winningProposalId;*/\n\n        workflowStatus = WorkflowStatus.VotesTallied;\n        emit WorkflowStatusChange(\n            WorkflowStatus.VotingSessionEnded,\n            WorkflowStatus.VotesTallied\n        );\n    }\n}\n",
  "sourcePath": "/home/anicaise/Formation/Alyra/reactVoting/truffle/contracts/Voting.sol",
  "compiler": {
    "name": "solc",
    "version": "0.8.17+commit.8df45f5f.Emscripten.clang"
  },
  "schemaVersion": "3.4.10",
  "updatedAt": "2022-11-17T23:14:16.656Z",
  "networkType": "ethereum",
  "devdoc": {
    "author": "smart contract programmer",
    "events": {
      "ProposalRegistered(uint256)": {
        "params": {
          "proposalId": "Index of the proposal in the table"
        }
      },
      "Voted(address,uint256)": {
        "params": {
          "proposalId": "Index of the proposal in the table",
          "voter": "Voter's address"
        }
      },
      "VoterRegistered(address)": {
        "params": {
          "voterAddress": "Voter's address"
        }
      },
      "WorkflowStatusChange(uint8,uint8)": {
        "params": {
          "newStatus": "Status after update",
          "previousStatus": "Status before update"
        }
      }
    },
    "kind": "dev",
    "methods": {
      "addProposal(string)": {
        "details": "Function can only be called by a registered voter",
        "params": {
          "_desc": "Description of the proposal"
        }
      },
      "addVoter(address)": {
        "details": "Function can only be called by the deployer of the contract",
        "params": {
          "_addr": "voter's address to add in the whitelist"
        }
      },
      "endProposalsRegistering()": {
        "details": "Function can only be called by the deployer of the contract"
      },
      "endVotingSession()": {
        "details": "Function can only be called by the deployer of the contract"
      },
      "getOneProposal(uint256)": {
        "params": {
          "_id": "Index of the proposal in the table"
        },
        "returns": {
          "_0": "Proposal made by a voter"
        }
      },
      "getVoter(address)": {
        "params": {
          "_addr": "caller's address"
        },
        "returns": {
          "_0": "Voter object"
        }
      },
      "owner()": {
        "details": "Returns the address of the current owner."
      },
      "renounceOwnership()": {
        "details": "Leaves the contract without owner. It will not be possible to call `onlyOwner` functions anymore. Can only be called by the current owner. NOTE: Renouncing ownership will leave the contract without an owner, thereby removing any functionality that is only available to the owner."
      },
      "setVote(uint256)": {
        "details": "Function can only be called by a registered voter",
        "params": {
          "_id": "Index of the proposal in the table"
        }
      },
      "startProposalsRegistering()": {
        "details": "Function can only be called by the deployer of the contract"
      },
      "startVotingSession()": {
        "details": "Function can only be called by the deployer of the contract"
      },
      "transferOwnership(address)": {
        "details": "Transfers ownership of the contract to a new account (`newOwner`). Can only be called by the current owner."
      }
    },
    "title": "Proposals voting system",
    "version": 1
  },
  "userdoc": {
    "events": {
      "ProposalRegistered(uint256)": {
        "notice": "This event is emitted when a proposal is registered."
      },
      "Voted(address,uint256)": {
        "notice": "This event is emitted when a voter has voted for a proposal"
      },
      "VoterRegistered(address)": {
        "notice": "This event is emitted when a vote is registered."
      },
      "WorkflowStatusChange(uint8,uint8)": {
        "notice": "This event is emitted when a voter is registered."
      }
    },
    "kind": "user",
    "methods": {
      "addProposal(string)": {
        "notice": "Add a proposal"
      },
      "addVoter(address)": {
        "notice": "Add a voter in the whitelist"
      },
      "endProposalsRegistering()": {
        "notice": "The contract owner stops the proposals registering session"
      },
      "endVotingSession()": {
        "notice": "The contract owner stops  the voting session"
      },
      "getOneProposal(uint256)": {
        "notice": "Return a proposal by id"
      },
      "getVoter(address)": {
        "notice": "Return a voter by a specific address"
      },
      "proposalsArray(uint256)": {
        "notice": "List of proposals"
      },
      "setVote(uint256)": {
        "notice": "Vote for a proposal"
      },
      "startProposalsRegistering()": {
        "notice": "The contract owner starts the proposals registering session"
      },
      "startVotingSession()": {
        "notice": "The contract owner starts the voting session"
      },
      "tallyVotes()": {
        "notice": "Count the votes - Finalise the votes"
      },
      "winningProposalID()": {
        "notice": "Index of the winning proposal"
      },
      "workflowStatus()": {
        "notice": "Current status of the workflow"
      }
    },
    "notice": "You can use this contract for setting up a proposals voting system",
    "version": 1
  }
}